{
  "contractName": "PaperManagement",
  "abi": [
    {
      "inputs": [],
      "stateMutability": "nonpayable",
      "type": "constructor"
    },
    {
      "inputs": [
        {
          "internalType": "uint256",
          "name": "id",
          "type": "uint256"
        }
      ],
      "name": "buy",
      "outputs": [],
      "stateMutability": "payable",
      "type": "function",
      "payable": true
    },
    {
      "inputs": [
        {
          "internalType": "string",
          "name": "title",
          "type": "string"
        },
        {
          "internalType": "string",
          "name": "author",
          "type": "string"
        },
        {
          "internalType": "string",
          "name": "keywords",
          "type": "string"
        },
        {
          "internalType": "string",
          "name": "ipfs_file",
          "type": "string"
        },
        {
          "internalType": "uint256",
          "name": "value",
          "type": "uint256"
        }
      ],
      "name": "registerPaper",
      "outputs": [],
      "stateMutability": "nonpayable",
      "type": "function"
    },
    {
      "inputs": [
        {
          "internalType": "string",
          "name": "title",
          "type": "string"
        }
      ],
      "name": "findTitle",
      "outputs": [
        {
          "internalType": "bool",
          "name": "",
          "type": "bool"
        }
      ],
      "stateMutability": "view",
      "type": "function",
      "constant": true
    },
    {
      "inputs": [
        {
          "internalType": "uint256",
          "name": "id",
          "type": "uint256"
        }
      ],
      "name": "getPaper_byId",
      "outputs": [
        {
          "internalType": "uint256",
          "name": "",
          "type": "uint256"
        },
        {
          "internalType": "string",
          "name": "",
          "type": "string"
        },
        {
          "internalType": "string",
          "name": "",
          "type": "string"
        },
        {
          "internalType": "string",
          "name": "",
          "type": "string"
        },
        {
          "internalType": "string",
          "name": "",
          "type": "string"
        },
        {
          "internalType": "address[]",
          "name": "",
          "type": "address[]"
        },
        {
          "internalType": "uint256",
          "name": "",
          "type": "uint256"
        }
      ],
      "stateMutability": "view",
      "type": "function",
      "constant": true
    },
    {
      "inputs": [
        {
          "internalType": "string",
          "name": "title",
          "type": "string"
        }
      ],
      "name": "getPaper_byTitle",
      "outputs": [
        {
          "internalType": "uint256",
          "name": "",
          "type": "uint256"
        },
        {
          "internalType": "string",
          "name": "",
          "type": "string"
        },
        {
          "internalType": "string",
          "name": "",
          "type": "string"
        },
        {
          "internalType": "string",
          "name": "",
          "type": "string"
        },
        {
          "internalType": "string",
          "name": "",
          "type": "string"
        },
        {
          "internalType": "address[]",
          "name": "",
          "type": "address[]"
        },
        {
          "internalType": "uint256",
          "name": "",
          "type": "uint256"
        }
      ],
      "stateMutability": "view",
      "type": "function",
      "constant": true
    },
    {
      "inputs": [
        {
          "internalType": "string",
          "name": "author",
          "type": "string"
        }
      ],
      "name": "getPaperIds_byAuthor",
      "outputs": [
        {
          "internalType": "uint256[]",
          "name": "",
          "type": "uint256[]"
        },
        {
          "internalType": "uint256",
          "name": "",
          "type": "uint256"
        }
      ],
      "stateMutability": "view",
      "type": "function",
      "constant": true
    },
    {
      "inputs": [],
      "name": "getIds",
      "outputs": [
        {
          "internalType": "uint256[]",
          "name": "",
          "type": "uint256[]"
        }
      ],
      "stateMutability": "view",
      "type": "function",
      "constant": true
    },
    {
      "inputs": [],
      "name": "getSumOfPapers",
      "outputs": [
        {
          "internalType": "uint256",
          "name": "",
          "type": "uint256"
        }
      ],
      "stateMutability": "view",
      "type": "function",
      "constant": true
    }
  ],
  "bytecode": "0x608060405234801561001057600080fd5b506000600281905550611b90806100286000396000f3fe60806040526004361061007b5760003560e01c8063d96a094a1161004e578063d96a094a1461015c578063e055f8c314610178578063e7c0687a146101b5578063fccfa9a7146101f35761007b565b80632b10566314610080578063597d10b0146100ab57806383306815146100ee578063885685b414610131575b600080fd5b34801561008c57600080fd5b5061009561021c565b6040516100a29190610ef9565b60405180910390f35b3480156100b757600080fd5b506100d260048036038101906100cd9190610f5b565b6102d9565b6040516100e59796959493929190611117565b60405180910390f35b3480156100fa57600080fd5b50610115600480360381019061011091906112de565b6105ea565b6040516101289796959493929190611117565b60405180910390f35b34801561013d57600080fd5b506101466109e0565b6040516101539190611327565b60405180910390f35b61017660048036038101906101719190610f5b565b6109ea565b005b34801561018457600080fd5b5061019f600480360381019061019a91906112de565b610abb565b6040516101ac919061135d565b60405180910390f35b3480156101c157600080fd5b506101dc60048036038101906101d791906112de565b610b5f565b6040516101ea929190611378565b60405180910390f35b3480156101ff57600080fd5b5061021a600480360381019061021591906113a8565b610cbf565b005b6060600060018054905067ffffffffffffffff81111561023f5761023e6111b3565b5b60405190808252806020026020018201604052801561026d5781602001602082028036833780820191505090505b50905060005b6001805490508110156102d1576001818154811061029457610293611493565b5b90600052602060002001548282815181106102b2576102b1611493565b5b60200260200101818152505080806102c9906114f1565b915050610273565b508091505090565b600060608060608060606000806000808a8152602001908152602001600020905080600001548160010182600201836003018460040185600501866006015485805461032490611568565b80601f016020809104026020016040519081016040528092919081815260200182805461035090611568565b801561039d5780601f106103725761010080835404028352916020019161039d565b820191906000526020600020905b81548152906001019060200180831161038057829003601f168201915b505050505095508480546103b090611568565b80601f01602080910402602001604051908101604052809291908181526020018280546103dc90611568565b80156104295780601f106103fe57610100808354040283529160200191610429565b820191906000526020600020905b81548152906001019060200180831161040c57829003601f168201915b5050505050945083805461043c90611568565b80601f016020809104026020016040519081016040528092919081815260200182805461046890611568565b80156104b55780601f1061048a576101008083540402835291602001916104b5565b820191906000526020600020905b81548152906001019060200180831161049857829003601f168201915b505050505093508280546104c890611568565b80601f01602080910402602001604051908101604052809291908181526020018280546104f490611568565b80156105415780601f1061051657610100808354040283529160200191610541565b820191906000526020600020905b81548152906001019060200180831161052457829003601f168201915b50505050509250818054806020026020016040519081016040528092919081815260200182805480156105c957602002820191906000526020600020905b8160009054906101000a900473ffffffffffffffffffffffffffffffffffffffff1673ffffffffffffffffffffffffffffffffffffffff168152602001906001019080831161057f575b50505050509150975097509750975097509750975050919395979092949650565b60006060806060806060600080600180549050905060005b600180549050811015610691578960405160200161062091906115d5565b6040516020818303038152906040528051906020012060008083815260200190815260200160002060010160405160200161065b9190611684565b604051602081830303815290604052805190602001200361067e57809150610691565b8080610689906114f1565b915050610602565b5060018054905081036106d9576040517f08c379a00000000000000000000000000000000000000000000000000000000081526004016106d09061170d565b60405180910390fd5b6000806000838152602001908152602001600020905080600001548160010182600201836003018460040185600501866006015485805461071990611568565b80601f016020809104026020016040519081016040528092919081815260200182805461074590611568565b80156107925780601f1061076757610100808354040283529160200191610792565b820191906000526020600020905b81548152906001019060200180831161077557829003601f168201915b505050505095508480546107a590611568565b80601f01602080910402602001604051908101604052809291908181526020018280546107d190611568565b801561081e5780601f106107f35761010080835404028352916020019161081e565b820191906000526020600020905b81548152906001019060200180831161080157829003601f168201915b5050505050945083805461083190611568565b80601f016020809104026020016040519081016040528092919081815260200182805461085d90611568565b80156108aa5780601f1061087f576101008083540402835291602001916108aa565b820191906000526020600020905b81548152906001019060200180831161088d57829003601f168201915b505050505093508280546108bd90611568565b80601f01602080910402602001604051908101604052809291908181526020018280546108e990611568565b80156109365780601f1061090b57610100808354040283529160200191610936565b820191906000526020600020905b81548152906001019060200180831161091957829003601f168201915b50505050509250818054806020026020016040519081016040528092919081815260200182805480156109be57602002820191906000526020600020905b8160009054906101000a900473ffffffffffffffffffffffffffffffffffffffff1673ffffffffffffffffffffffffffffffffffffffff1681526020019060010190808311610974575b5050505050915098509850985098509850985098505050919395979092949650565b6000600254905090565b60008082815260200190815260200160002060060154341015610a42576040517f08c379a0000000000000000000000000000000000000000000000000000000008152600401610a3990611779565b60405180910390fd5b600080828152602001908152602001600020600501339080600181540180825580915050600190039060005260206000200160009091909190916101000a81548173ffffffffffffffffffffffffffffffffffffffff021916908373ffffffffffffffffffffffffffffffffffffffff16021790555050565b6000806000905060005b600180549050811015610b555783604051602001610ae391906115d5565b60405160208183030381529060405280519060200120600080838152602001908152602001600020600101604051602001610b1e9190611684565b6040516020818303038152906040528051906020012003610b425760019150610b55565b8080610b4d906114f1565b915050610ac5565b5080915050919050565b606060008060018054905067ffffffffffffffff811115610b8357610b826111b3565b5b604051908082528060200260200182016040528015610bb15781602001602082028036833780820191505090505b5090506000805b600180549050811015610c6e5785604051602001610bd691906115d5565b60405160208183030381529060405280519060200120600080838152602001908152602001600020600201604051602001610c119190611684565b6040516020818303038152906040528051906020012003610c5b5780838381518110610c4057610c3f611493565b5b6020026020010181815250508180610c57906114f1565b9250505b8080610c66906114f1565b915050610bb8565b5060008103610cb2576040517f08c379a0000000000000000000000000000000000000000000000000000000008152600401610ca99061180b565b60405180910390fd5b8181935093505050915091565b60001515610ccc86610abb565b151514610d0e576040517f08c379a0000000000000000000000000000000000000000000000000000000008152600401610d059061189d565b60405180910390fd5b600060025490506000806000838152602001908152602001600020905081816000018190555086816001019081610d459190611a54565b5085816002019081610d579190611a54565b5084816003019081610d699190611a54565b5083816004019081610d7b9190611a54565b5080600501339080600181540180825580915050600190039060005260206000200160009091909190916101000a81548173ffffffffffffffffffffffffffffffffffffffff021916908373ffffffffffffffffffffffffffffffffffffffff16021790555082816006018190555060018290806001815401808255809150506001900390600052602060002001600090919091909150556001600254610e229190611b26565b60028190555050505050505050565b600081519050919050565b600082825260208201905092915050565b6000819050602082019050919050565b6000819050919050565b610e7081610e5d565b82525050565b6000610e828383610e67565b60208301905092915050565b6000602082019050919050565b6000610ea682610e31565b610eb08185610e3c565b9350610ebb83610e4d565b8060005b83811015610eec578151610ed38882610e76565b9750610ede83610e8e565b925050600181019050610ebf565b5085935050505092915050565b60006020820190508181036000830152610f138184610e9b565b905092915050565b6000604051905090565b600080fd5b600080fd5b610f3881610e5d565b8114610f4357600080fd5b50565b600081359050610f5581610f2f565b92915050565b600060208284031215610f7157610f70610f25565b5b6000610f7f84828501610f46565b91505092915050565b610f9181610e5d565b82525050565b600081519050919050565b600082825260208201905092915050565b60005b83811015610fd1578082015181840152602081019050610fb6565b60008484015250505050565b6000601f19601f8301169050919050565b6000610ff982610f97565b6110038185610fa2565b9350611013818560208601610fb3565b61101c81610fdd565b840191505092915050565b600081519050919050565b600082825260208201905092915050565b6000819050602082019050919050565b600073ffffffffffffffffffffffffffffffffffffffff82169050919050565b600061107e82611053565b9050919050565b61108e81611073565b82525050565b60006110a08383611085565b60208301905092915050565b6000602082019050919050565b60006110c482611027565b6110ce8185611032565b93506110d983611043565b8060005b8381101561110a5781516110f18882611094565b97506110fc836110ac565b9250506001810190506110dd565b5085935050505092915050565b600060e08201905061112c600083018a610f88565b818103602083015261113e8189610fee565b905081810360408301526111528188610fee565b905081810360608301526111668187610fee565b9050818103608083015261117a8186610fee565b905081810360a083015261118e81856110b9565b905061119d60c0830184610f88565b98975050505050505050565b600080fd5b600080fd5b7f4e487b7100000000000000000000000000000000000000000000000000000000600052604160045260246000fd5b6111eb82610fdd565b810181811067ffffffffffffffff8211171561120a576112096111b3565b5b80604052505050565b600061121d610f1b565b905061122982826111e2565b919050565b600067ffffffffffffffff821115611249576112486111b3565b5b61125282610fdd565b9050602081019050919050565b82818337600083830152505050565b600061128161127c8461122e565b611213565b90508281526020810184848401111561129d5761129c6111ae565b5b6112a884828561125f565b509392505050565b600082601f8301126112c5576112c46111a9565b5b81356112d584826020860161126e565b91505092915050565b6000602082840312156112f4576112f3610f25565b5b600082013567ffffffffffffffff81111561131257611311610f2a565b5b61131e848285016112b0565b91505092915050565b600060208201905061133c6000830184610f88565b92915050565b60008115159050919050565b61135781611342565b82525050565b6000602082019050611372600083018461134e565b92915050565b600060408201905081810360008301526113928185610e9b565b90506113a16020830184610f88565b9392505050565b600080600080600060a086880312156113c4576113c3610f25565b5b600086013567ffffffffffffffff8111156113e2576113e1610f2a565b5b6113ee888289016112b0565b955050602086013567ffffffffffffffff81111561140f5761140e610f2a565b5b61141b888289016112b0565b945050604086013567ffffffffffffffff81111561143c5761143b610f2a565b5b611448888289016112b0565b935050606086013567ffffffffffffffff81111561146957611468610f2a565b5b611475888289016112b0565b925050608061148688828901610f46565b9150509295509295909350565b7f4e487b7100000000000000000000000000000000000000000000000000000000600052603260045260246000fd5b7f4e487b7100000000000000000000000000000000000000000000000000000000600052601160045260246000fd5b60006114fc82610e5d565b91507fffffffffffffffffffffffffffffffffffffffffffffffffffffffffffffffff820361152e5761152d6114c2565b5b600182019050919050565b7f4e487b7100000000000000000000000000000000000000000000000000000000600052602260045260246000fd5b6000600282049050600182168061158057607f821691505b60208210810361159357611592611539565b5b50919050565b600081905092915050565b60006115af82610f97565b6115b98185611599565b93506115c9818560208601610fb3565b80840191505092915050565b60006115e182846115a4565b915081905092915050565b60008190508160005260206000209050919050565b6000815461160e81611568565b6116188186611599565b9450600182166000811461163357600181146116485761167b565b60ff198316865281151582028601935061167b565b611651856115ec565b60005b8381101561167357815481890152600182019150602081019050611654565b838801955050505b50505092915050565b60006116908284611601565b915081905092915050565b7f54686973207469746c6520646f6573206e6f74206578697374206e6f7761646160008201527f7973000000000000000000000000000000000000000000000000000000000000602082015250565b60006116f7602283610fa2565b91506117028261169b565b604082019050919050565b60006020820190508181036000830152611726816116ea565b9050919050565b7f54686520616d6f756e7420697320746f6f206c6f772100000000000000000000600082015250565b6000611763601683610fa2565b915061176e8261172d565b602082019050919050565b6000602082019050818103600083015261179281611756565b9050919050565b7f54686973206175746f7220646f6573206e6f742068617665207061706572732060008201527f6e6f776164617973000000000000000000000000000000000000000000000000602082015250565b60006117f5602883610fa2565b915061180082611799565b604082019050919050565b60006020820190508181036000830152611824816117e8565b9050919050565b7f412070617065722077697468207468652073616d65207469746c65207761732060008201527f616c72656164792075706c6f6164656400000000000000000000000000000000602082015250565b6000611887603083610fa2565b91506118928261182b565b604082019050919050565b600060208201905081810360008301526118b68161187a565b9050919050565b60006020601f8301049050919050565b600082821b905092915050565b60006008830261190a7fffffffffffffffffffffffffffffffffffffffffffffffffffffffffffffffff826118cd565b61191486836118cd565b95508019841693508086168417925050509392505050565b6000819050919050565b600061195161194c61194784610e5d565b61192c565b610e5d565b9050919050565b6000819050919050565b61196b83611936565b61197f61197782611958565b8484546118da565b825550505050565b600090565b611994611987565b61199f818484611962565b505050565b5b818110156119c3576119b860008261198c565b6001810190506119a5565b5050565b601f821115611a08576119d9816115ec565b6119e2846118bd565b810160208510156119f1578190505b611a056119fd856118bd565b8301826119a4565b50505b505050565b600082821c905092915050565b6000611a2b60001984600802611a0d565b1980831691505092915050565b6000611a448383611a1a565b9150826002028217905092915050565b611a5d82610f97565b67ffffffffffffffff811115611a7657611a756111b3565b5b611a808254611568565b611a8b8282856119c7565b600060209050601f831160018114611abe5760008415611aac578287015190505b611ab68582611a38565b865550611b1e565b601f198416611acc866115ec565b60005b82811015611af457848901518255600182019150602085019450602081019050611acf565b86831015611b115784890151611b0d601f891682611a1a565b8355505b6001600288020188555050505b505050505050565b6000611b3182610e5d565b9150611b3c83610e5d565b9250828201905080821115611b5457611b536114c2565b5b9291505056fea2646970667358221220617411b443f8e2da63ec0f0b255bade10874f3220cc02d565cc95b971ccbd77164736f6c63430008110033",
  "immutableReferences": {},
  "source": "\t// SPDX-License-Identifier: CC-BY-NC-SA-4.0\r\n\r\n\tpragma solidity ^0.8.17;\r\n\r\n\t// the Ether unit assumed for the contract is wei\r\n\tcontract PaperManagement {\r\n\t\tstruct paperInfo {\r\n\t\t\tuint256 id;\r\n\t\t\tstring title;                // paper's name\r\n\t\t\tstring author;               //paper's autor\r\n\t\t\tstring keywords;          //paper's key words\r\n\t\t\tstring ipfs_file;          // hash to IPFS file\r\n\t\t\taddress[] owners;\t\t\t\t//paper's owner\r\n\t\t\tuint256 value;\t\t\t\t//paper's value\r\n\t\t}\r\n\r\n\t\tmapping (uint256 => paperInfo) papers; //papers collection\r\n\t\tuint256[] paperIds; \t\t\t// paper's id\r\n\t\tuint256 sumOfPapers;\t\t\t// sum of all papers we have\r\n\r\n\t\tconstructor () {\r\n\t\t\tsumOfPapers = 0; \r\n\t\t}\r\n\r\n\t\tfunction buy(uint256 id) external payable {\r\n\t\t\trequire(msg.value >= papers[id].value, 'The amount is too low!');\r\n\t\t\t\r\n\t\t\t/*\r\n\t\t\t* sends the requested paper\r\n\t\t\t* from this contract address\r\n\t\t\t* to the buyer\r\n\t\t\t*/\r\n\t\t\tpapers[id].owners.push(msg.sender);\r\n\t\t}\r\n\r\n\t\tfunction registerPaper(string memory title, string memory author, string memory keywords, \r\n\t\t\t\t\t\t\t\tstring memory ipfs_file, uint256 value) public {\r\n\t\t\trequire(findTitle(title) == false, \"A paper with the same title was already uploaded\");\r\n\t\t\t//we should check title and keywords here\t\t\t\t\t\t\r\n\t\t\tuint256 id = sumOfPapers;\t\t\t\t\t\t\r\n\t\t\tpaperInfo storage newPaper = papers[id];\r\n\t\t\tnewPaper.id = id;\r\n\t\t\tnewPaper.title = title;\r\n\t\t\tnewPaper.author = author;\r\n\t\t\tnewPaper.keywords = keywords;\r\n\t\t\tnewPaper.ipfs_file = ipfs_file;\r\n\t\t\tnewPaper.owners.push(msg.sender);\r\n\t\t\tnewPaper.value = value;\r\n\t\t\tpaperIds.push(id);\r\n\t\t\tsumOfPapers= sumOfPapers + 1;\r\n\t\t}\t\r\n\t\t\r\n\t\tfunction findTitle(string memory title) public view returns (bool) {\r\n\t\t\tbool found = false;\r\n\t\t\tfor (uint i=0; i<paperIds.length; i++) {\r\n\t\t\t\tif (keccak256(abi.encodePacked((papers[i].title))) == keccak256(abi.encodePacked((title)))) {\r\n\t\t\t\t\tfound = true;\r\n\t\t\t\t\tbreak;\r\n\t\t\t \t}\r\n\t\t\t}\r\n\t\t\treturn found;\r\n\t\t}\r\n\t\t\r\n\t\tfunction getPaper_byId(uint256 id) public view returns (uint256, string memory, string memory, string memory, string memory, address[] memory, uint256){\r\n\t\t\tpaperInfo storage s = papers[id];\r\n\t\t\treturn (s.id, s.title, s.author, s.keywords, s.ipfs_file, s.owners, s.value);\r\n\t\t}\r\n\r\n\t\tfunction getPaper_byTitle(string memory title) public view returns (uint256, string memory, string memory, string memory, string memory, address[] memory, uint256){\r\n\t\t\tuint paperId = paperIds.length;\r\n\t\t\tfor (uint i=0; i<paperIds.length; i++) {\r\n\t\t\t\tif (keccak256(abi.encodePacked((papers[i].title))) == keccak256(abi.encodePacked((title)))){\r\n\t\t\t\t\tpaperId = i;\r\n\t\t\t\t\tbreak;\r\n\t\t\t\t}\r\n\t\t\t}\r\n\t\t\trequire(paperId != paperIds.length, \"This title does not exist nowadays\");\r\n\t\t\tpaperInfo storage s = papers[paperId];\r\n\t\t\treturn (s.id, s.title, s.author, s.keywords, s.ipfs_file, s.owners, s.value);\r\n\t\t}\r\n\r\n\t\tfunction getPaperIds_byAuthor(string memory author) public view returns (uint256[] memory, uint256){\r\n\t\t\t\r\n\t\t\tuint256[] memory ids = new uint256[](paperIds.length);\r\n\t\t\tuint256 count = 0;\r\n\r\n\t\t\tfor (uint256 i=0; i<paperIds.length; i++){\r\n\t\t\t\tif (keccak256(abi.encodePacked((papers[i].author))) == keccak256(abi.encodePacked((author)))){\r\n\t\t\t\t\tids[count] = i;\r\n\t\t\t\t\tcount++;\r\n\t\t\t\t}\r\n\t\t\t }\r\n\t\t\trequire(count != 0, \"This autor does not have papers nowadays\");\r\n\t\t\treturn (ids, count);\r\n\t\t}\r\n\r\n\t\tfunction getIds() public view returns (uint256[] memory) {\r\n\t\t\tuint256[] memory listOfIds = new uint256[](paperIds.length);\r\n\t\t\tfor (uint i=0; i<paperIds.length; i++){\r\n\t\t\t\tlistOfIds[i] = paperIds[i];\r\n\t\t\t}\r\n\t\t\treturn listOfIds;\r\n\t\t}\r\n\r\n\t\tfunction getSumOfPapers() public view returns (uint){\r\n\t\t\treturn sumOfPapers;\r\n\t\t}\r\n\t\t\r\n\t}",
  "sourcePath": "/home/oormacheah/Desktop/Uni shit/Blockchain/group_project/contracts/PaperManagement.sol",
  "compiler": {
    "name": "solc",
    "version": "0.8.17+commit.8df45f5f.Emscripten.clang"
  },
  "schemaVersion": "3.4.11",
  "updatedAt": "2023-01-30T12:54:17.989Z",
  "networkType": "ethereum",
  "devdoc": {
    "kind": "dev",
    "methods": {},
    "version": 1
  },
  "userdoc": {
    "kind": "user",
    "methods": {},
    "version": 1
  }
}